{
  "contractName": "MyContract",
  "abi": [
    {
      "inputs": [],
      "name": "getSummary",
      "outputs": [
        {
          "internalType": "address",
          "name": "",
          "type": "address"
        },
        {
          "internalType": "uint256",
          "name": "",
          "type": "uint256"
        },
        {
          "internalType": "uint256",
          "name": "",
          "type": "uint256"
        }
      ],
      "stateMutability": "view",
      "type": "function",
      "constant": true
    }
  ],
  "bytecode": "0x608060405234801561001057600080fd5b50610117806100206000396000f3fe6080604052348015600f57600080fd5b506004361060285760003560e01c80634051ddac14602d575b600080fd5b60336049565b6040516040939291906076565b60405180910390f35b600080600033433a925092509250909192565b60638160a7565b82525050565b60708160d7565b82525050565b600060608201905060896000830186605c565b609460208301856069565b609f60408301846069565b949350505050565b600060b08260b7565b9050919050565b600073ffffffffffffffffffffffffffffffffffffffff82169050919050565b600081905091905056fea2646970667358221220ba23f1ff21eca56de0667e6a7b07583c274f42bd8cfac8a8bfe1dbc0fe22e9f764736f6c63430008000033",
  "immutableReferences": {},
  "source": "// SPDX-License-Identifier: MIT\r\npragma solidity ^0.8.0;\r\n\r\ncontract MyContract {\r\n\r\n//Variabili e funzioni speciali\r\n\r\n//transaction tx\r\n    //tx.gasprice (uint): gas price of the transaction\r\n    //tx.origin (address payable): sender of the transaction (full call chain) //indirizzo di origine della transazione\r\n\r\n//message msg \r\n    //msg.data (bytes calldata): complete calldata //contenuto del messaggio\r\n    //msg.sender (address payable): sender of the message (current call) //Indirizzo del messaggio\r\n    //msg.sig (bytes4): first four bytes of the calldata (i.e. function identifier) \r\n    //msg.value (uint): number of wei sent with the message //valore dei gwei\r\n\r\n//blocks \r\n    //block.coinbase (address payable): current block miner’s address \r\n    //block.difficulty (uint): current block difficulty //difficoltà per validarlo\r\n    //block.gaslimit (uint): current block gaslimit \r\n    //block.number (uint): current block number //numero del blocco\r\n    //block.timestamp (uint): current block timestamp as seconds since unix epoch\r\n\r\n//altre\r\n    //blockhash(uint blockNumber) returns (bytes32): hash of the given block - only works for 256 most recent, excluding current, blocks\r\n    //now (uint): current block timestamp (alias for block.timestamp)\r\n    //gasleft() returns (uint256): remaining gas\r\n\r\n    function getSummary() external view returns(address, uint, uint){\r\n        return (msg.sender,block.number,tx.gasprice);\r\n\r\n    }\r\n\r\n\r\n}",
  "sourcePath": "C:/Users/annal/Documents/GitHub/smartcontract/contracts/MyContract.sol",
  "compiler": {
    "name": "solc",
    "version": "0.8.0+commit.c7dfd78e.Emscripten.clang"
  },
  "schemaVersion": "3.4.1",
  "updatedAt": "2022-01-20T08:50:08.916Z",
  "networkType": "ethereum",
  "devdoc": {
    "kind": "dev",
    "methods": {},
    "version": 1
  },
  "userdoc": {
    "kind": "user",
    "methods": {},
    "version": 1
  }
}