{
  "contractName": "MyContract",
  "abi": [
    {
      "inputs": [
        {
          "internalType": "uint256",
          "name": "",
          "type": "uint256"
        }
      ],
      "name": "players",
      "outputs": [
        {
          "internalType": "string",
          "name": "name",
          "type": "string"
        },
        {
          "internalType": "uint256",
          "name": "goals",
          "type": "uint256"
        }
      ],
      "stateMutability": "view",
      "type": "function",
      "constant": true
    },
    {
      "inputs": [
        {
          "internalType": "string",
          "name": "_name",
          "type": "string"
        },
        {
          "internalType": "uint256",
          "name": "_goals",
          "type": "uint256"
        }
      ],
      "name": "addPlayer",
      "outputs": [],
      "stateMutability": "nonpayable",
      "type": "function"
    }
  ],
  "bytecode": "0x608060405234801561001057600080fd5b5061050f806100206000396000f3fe608060405234801561001057600080fd5b50600436106100365760003560e01c806376c07da41461003b578063f71d96cb14610057575b600080fd5b610055600480360381019061005091906102fe565b610088565b005b610071600480360381019061006c9190610356565b610140565b60405161007f9291906103c7565b60405180910390f35b6000604051806040016040528085858080601f016020809104026020016040519081016040528093929190818152602001838380828437600081840152601f19601f8201169050808301925050505050505081526020018381525090506000819080600181540180825580915050600190039060005260206000209060020201600090919091909150600082015181600001908051906020019061012d9291906101fc565b5060208201518160010155505050505050565b6000818154811061015057600080fd5b906000526020600020906002020160009150905080600001805461017390610450565b80601f016020809104026020016040519081016040528092919081815260200182805461019f90610450565b80156101ec5780601f106101c1576101008083540402835291602001916101ec565b820191906000526020600020905b8154815290600101906020018083116101cf57829003601f168201915b5050505050908060010154905082565b82805461020890610450565b90600052602060002090601f01602090048101928261022a5760008555610271565b82601f1061024357805160ff1916838001178555610271565b82800160010185558215610271579182015b82811115610270578251825591602001919060010190610255565b5b50905061027e9190610282565b5090565b5b8082111561029b576000816000905550600101610283565b5090565b60008083601f8401126102b157600080fd5b8235905067ffffffffffffffff8111156102ca57600080fd5b6020830191508360018202830111156102e257600080fd5b9250929050565b6000813590506102f8816104c2565b92915050565b60008060006040848603121561031357600080fd5b600084013567ffffffffffffffff81111561032d57600080fd5b6103398682870161029f565b9350935050602061034c868287016102e9565b9150509250925092565b60006020828403121561036857600080fd5b6000610376848285016102e9565b91505092915050565b600061038a826103f7565b6103948185610402565b93506103a481856020860161041d565b6103ad816104b1565b840191505092915050565b6103c181610413565b82525050565b600060408201905081810360008301526103e1818561037f565b90506103f060208301846103b8565b9392505050565b600081519050919050565b600082825260208201905092915050565b6000819050919050565b60005b8381101561043b578082015181840152602081019050610420565b8381111561044a576000848401525b50505050565b6000600282049050600182168061046857607f821691505b6020821081141561047c5761047b610482565b5b50919050565b7f4e487b7100000000000000000000000000000000000000000000000000000000600052602260045260246000fd5b6000601f19601f8301169050919050565b6104cb81610413565b81146104d657600080fd5b5056fea264697066735822122092d7b73fca33d2bdd36e4b703804fd0881aa3f4fbf0cbc112eb2287cc3fbea9f64736f6c63430008000033",
  "immutableReferences": {},
  "source": "// SPDX-License-Identifier: MIT\r\npragma solidity ^0.8.0;\r\n\r\ncontract MyContract {\r\n\r\n   //Struct\r\n    struct Player {\r\n        string name;\r\n        uint goals;\r\n    }\r\n\r\n    Player[] public players;\r\n    function addPlayer(string calldata _name, uint _goals) external {\r\n        Player memory player = Player(_name,_goals);\r\n        players.push(player); \r\n    }\r\n\r\n\r\n}",
  "sourcePath": "C:/Users/annal/Documents/GitHub/smartcontract/contracts/MyContract.sol",
  "compiler": {
    "name": "solc",
    "version": "0.8.0+commit.c7dfd78e.Emscripten.clang"
  },
  "schemaVersion": "3.4.1",
  "updatedAt": "2022-01-20T16:20:17.334Z",
  "networkType": "ethereum",
  "devdoc": {
    "kind": "dev",
    "methods": {},
    "version": 1
  },
  "userdoc": {
    "kind": "user",
    "methods": {},
    "version": 1
  }
}