{
  "contractName": "MyContract",
  "abi": [
    {
      "inputs": [
        {
          "internalType": "address",
          "name": "",
          "type": "address"
        }
      ],
      "name": "age",
      "outputs": [
        {
          "internalType": "uint256",
          "name": "",
          "type": "uint256"
        }
      ],
      "stateMutability": "view",
      "type": "function",
      "constant": true
    },
    {
      "inputs": [
        {
          "internalType": "uint256",
          "name": "_age",
          "type": "uint256"
        }
      ],
      "name": "assignAge",
      "outputs": [],
      "stateMutability": "nonpayable",
      "type": "function"
    },
    {
      "inputs": [
        {
          "internalType": "address",
          "name": "_sender",
          "type": "address"
        }
      ],
      "name": "getAge",
      "outputs": [
        {
          "internalType": "uint256",
          "name": "",
          "type": "uint256"
        }
      ],
      "stateMutability": "view",
      "type": "function",
      "constant": true
    }
  ],
  "bytecode": "0x608060405234801561001057600080fd5b506102ae806100206000396000f3fe608060405234801561001057600080fd5b50600436106100415760003560e01c80633401d7de1461004657806338451598146100765780638e8af8df146100a6575b600080fd5b610060600480360381019061005b9190610192565b6100c2565b60405161006d91906101f3565b60405180910390f35b610090600480360381019061008b9190610192565b6100da565b60405161009d91906101f3565b60405180910390f35b6100c060048036038101906100bb91906101bb565b610122565b005b60006020528060005260406000206000915090505481565b60008060008373ffffffffffffffffffffffffffffffffffffffff1673ffffffffffffffffffffffffffffffffffffffff168152602001908152602001600020549050919050565b806000803373ffffffffffffffffffffffffffffffffffffffff1673ffffffffffffffffffffffffffffffffffffffff1681526020019081526020016000208190555050565b6000813590506101778161024a565b92915050565b60008135905061018c81610261565b92915050565b6000602082840312156101a457600080fd5b60006101b284828501610168565b91505092915050565b6000602082840312156101cd57600080fd5b60006101db8482850161017d565b91505092915050565b6101ed81610240565b82525050565b600060208201905061020860008301846101e4565b92915050565b600061021982610220565b9050919050565b600073ffffffffffffffffffffffffffffffffffffffff82169050919050565b6000819050919050565b6102538161020e565b811461025e57600080fd5b50565b61026a81610240565b811461027557600080fd5b5056fea2646970667358221220f1bf4db1df3f69fa77c37688395d8d620d7f9df5d7f344b0338592a92f26117664736f6c63430008000033",
  "immutableReferences": {},
  "source": "// SPDX-License-Identifier: MIT\r\npragma solidity ^0.8.0;\r\n\r\ncontract MyContract {\r\n\r\n    //Mapping - simiili ai dizionari\r\n    //key => value \r\n    //mapping(address => uint) age;\r\n\r\n    //Create\r\n    //Read\r\n    //Update\r\n    //Delete\r\n\r\n    mapping(address => uint) public age;\r\n\r\n    function assignAge(uint _age) external {\r\n        age[msg.sender]=_age;\r\n    }\r\n\r\n    function getAge(address _sender) external view returns(uint){\r\n        return age[_sender];\r\n    }\r\n\r\n\r\n}",
  "sourcePath": "C:/Users/annal/Documents/GitHub/smartcontract/contracts/MyContract.sol",
  "compiler": {
    "name": "solc",
    "version": "0.8.0+commit.c7dfd78e.Emscripten.clang"
  },
  "schemaVersion": "3.4.1",
  "updatedAt": "2022-01-20T16:04:12.942Z",
  "networkType": "ethereum",
  "devdoc": {
    "kind": "dev",
    "methods": {},
    "version": 1
  },
  "userdoc": {
    "kind": "user",
    "methods": {},
    "version": 1
  }
}