{
  "contractName": "TutorialVariable",
  "abi": [
    {
      "inputs": [],
      "name": "variable2",
      "outputs": [
        {
          "internalType": "uint256",
          "name": "",
          "type": "uint256"
        }
      ],
      "stateMutability": "view",
      "type": "function"
    }
  ],
  "bytecode": "0x6080604052600a60085534801561001557600080fd5b5060b3806100246000396000f3fe6080604052348015600f57600080fd5b506004361060285760003560e01c8063361c803514602d575b600080fd5b60336047565b604051603e9190605a565b60405180910390f35b600a5481565b6054816073565b82525050565b6000602082019050606d6000830184604d565b92915050565b600081905091905056fea2646970667358221220dfe1602f985e9122988b209d4b2bd2b5aa4d4acadefdb88a0a8f5ca3cc042acd64736f6c63430008000033",
  "immutableReferences": {},
  "source": "// SPDX-License-Identifier: MIT\r\npragma solidity ^0.8.0;\r\n\r\ncontract TutorialVariable {\r\n\r\n    //Variabili a dimensione fissa\r\n    bool status; //true o false\r\n    uint price; \r\n    address indirizzo; //Indirizzo di un contratto o di un utente \r\n    bytes32 bytesVariable; //dimensione di 32\r\n\r\n    //Variabili a dimensione non fissa\r\n    string name;\r\n    bytes bytesVariable2;\r\n    uint[] vettore; //vettori\r\n    mapping(uint => string) dizionario; //funzione che prende all'interno una quantità e viene associata ad essa una scritta Una sorta di dizionario in python\r\n\r\n    //variabili definite ad-hoc simili alle struct in c\r\n    struct Persone{\r\n        string name;\r\n        string surname;\r\n        uint age;\r\n    }\r\n    enum Status{\r\n        ON,\r\n        OFF\r\n    } //scegli delle opzioni definite all'interno di essa\r\n    //Potrei accedere con Status.ON o Status.OFF\r\n\r\n    //Concetto di visibility\r\n\r\n    uint private fede=10; //Private può essere usata solamente all'interno dello smart contract in cui è contenuta\r\n    uint internal variable; //Può essere utilizzata con tutti gli smart contract che interagiscono con questo ad esempio per l'ereditarietà\r\n    uint public variable2; //Può essere usata da tutti\r\n\r\n\r\n\r\n}",
  "sourcePath": "C:/Users/annal/Documents/GitHub/smartcontract/contracts/TutorialVariable.sol",
  "compiler": {
    "name": "solc",
    "version": "0.8.0+commit.c7dfd78e.Emscripten.clang"
  },
  "schemaVersion": "3.4.1",
  "updatedAt": "2022-01-20T08:17:30.059Z",
  "devdoc": {
    "kind": "dev",
    "methods": {},
    "version": 1
  },
  "userdoc": {
    "kind": "user",
    "methods": {},
    "version": 1
  }
}